{
    "_format": "hh-sol-artifact-1",
    "contractName": "StakingContract",
    "sourceName": "contracts/staking.sol",
    "abi": [
        {
            "anonymous": false,
            "inputs": [
                {
                    "indexed": true,
                    "internalType": "address",
                    "name": "account",
                    "type": "address"
                }
            ],
            "name": "AdminAdded",
            "type": "event"
        },
        {
            "anonymous": false,
            "inputs": [
                {
                    "indexed": true,
                    "internalType": "address",
                    "name": "account",
                    "type": "address"
                }
            ],
            "name": "AdminRemoved",
            "type": "event"
        },
        {
            "anonymous": false,
            "inputs": [
                {
                    "indexed": true,
                    "internalType": "address",
                    "name": "user",
                    "type": "address"
                },
                {
                    "indexed": false,
                    "internalType": "uint256",
                    "name": "amount",
                    "type": "uint256"
                },
                {
                    "indexed": false,
                    "internalType": "uint256",
                    "name": "timestamp",
                    "type": "uint256"
                }
            ],
            "name": "Staked",
            "type": "event"
        },
        {
            "anonymous": false,
            "inputs": [
                {
                    "indexed": true,
                    "internalType": "address",
                    "name": "user",
                    "type": "address"
                },
                {
                    "indexed": false,
                    "internalType": "uint256",
                    "name": "amount",
                    "type": "uint256"
                }
            ],
            "name": "Withdrawn",
            "type": "event"
        },
        {
            "inputs": [],
            "name": "STAKE_DURATION",
            "outputs": [
                {
                    "internalType": "uint256",
                    "name": "",
                    "type": "uint256"
                }
            ],
            "stateMutability": "view",
            "type": "function"
        },
        {
            "inputs": [
                {
                    "internalType": "address",
                    "name": "account",
                    "type": "address"
                }
            ],
            "name": "addAdmin",
            "outputs": [],
            "stateMutability": "nonpayable",
            "type": "function"
        },
        {
            "inputs": [],
            "name": "allAdmins",
            "outputs": [
                {
                    "internalType": "address[]",
                    "name": "admins",
                    "type": "address[]"
                }
            ],
            "stateMutability": "view",
            "type": "function"
        },
        {
            "inputs": [
                {
                    "internalType": "uint256",
                    "name": "amount",
                    "type": "uint256"
                }
            ],
            "name": "approveFromFixedWallet",
            "outputs": [],
            "stateMutability": "nonpayable",
            "type": "function"
        },
        {
            "inputs": [
                {
                    "internalType": "address[]",
                    "name": "amounts",
                    "type": "address[]"
                }
            ],
            "name": "batchAddAdmin",
            "outputs": [],
            "stateMutability": "nonpayable",
            "type": "function"
        },
        {
            "inputs": [],
            "name": "fixedWallet",
            "outputs": [
                {
                    "internalType": "address",
                    "name": "",
                    "type": "address"
                }
            ],
            "stateMutability": "view",
            "type": "function"
        },
        {
            "inputs": [
                {
                    "internalType": "address",
                    "name": "user",
                    "type": "address"
                }
            ],
            "name": "getStake",
            "outputs": [
                {
                    "internalType": "uint256[]",
                    "name": "amounts",
                    "type": "uint256[]"
                },
                {
                    "internalType": "uint256[]",
                    "name": "timestamps",
                    "type": "uint256[]"
                }
            ],
            "stateMutability": "view",
            "type": "function"
        },
        {
            "inputs": [
                {
                    "internalType": "address",
                    "name": "account",
                    "type": "address"
                }
            ],
            "name": "isAdmin",
            "outputs": [
                {
                    "internalType": "bool",
                    "name": "",
                    "type": "bool"
                }
            ],
            "stateMutability": "view",
            "type": "function"
        },
        {
            "inputs": [
                {
                    "internalType": "address",
                    "name": "account",
                    "type": "address"
                }
            ],
            "name": "removeAdmin",
            "outputs": [],
            "stateMutability": "nonpayable",
            "type": "function"
        },
        {
            "inputs": [],
            "name": "renounceAdmin",
            "outputs": [],
            "stateMutability": "nonpayable",
            "type": "function"
        },
        {
            "inputs": [
                {
                    "internalType": "address",
                    "name": "_usdtToken",
                    "type": "address"
                },
                {
                    "internalType": "address",
                    "name": "_fixedWallet",
                    "type": "address"
                }
            ],
            "name": "set",
            "outputs": [],
            "stateMutability": "nonpayable",
            "type": "function"
        },
        {
            "inputs": [
                {
                    "internalType": "uint256",
                    "name": "amount",
                    "type": "uint256"
                }
            ],
            "name": "stake",
            "outputs": [],
            "stateMutability": "nonpayable",
            "type": "function"
        },
        {
            "inputs": [
                {
                    "internalType": "address",
                    "name": "",
                    "type": "address"
                },
                {
                    "internalType": "uint256",
                    "name": "",
                    "type": "uint256"
                }
            ],
            "name": "stakes",
            "outputs": [
                {
                    "internalType": "uint256",
                    "name": "amount",
                    "type": "uint256"
                },
                {
                    "internalType": "uint256",
                    "name": "timestamp",
                    "type": "uint256"
                }
            ],
            "stateMutability": "view",
            "type": "function"
        },
        {
            "inputs": [],
            "name": "usdtToken",
            "outputs": [
                {
                    "internalType": "contract IERC20",
                    "name": "",
                    "type": "address"
                }
            ],
            "stateMutability": "view",
            "type": "function"
        },
        {
            "inputs": [],
            "name": "withdraw",
            "outputs": [],
            "stateMutability": "nonpayable",
            "type": "function"
        }
    ],
    "bytecode": "0x60806040523461001a57604051611434610020823961143490f35b600080fdfe6080604052600436101561001257600080fd5b60003560e01c80631785f53c1461010257806324d7806c146100fd5780632c9ab42b146100f85780633bdd7a59146100f35780633ccfd60b146100ee57806340f32be6146100e9578063584b62a1146100e45780636afb630a146100df57806370480275146100da5780637a766460146100d557806389675cac146100d05780638bad0c0a146100cb578063a694fc3a146100c6578063a98ad46c146100c15763d6507d0b03610128576106d6565b6106af565b610672565b610646565b61062d565b6105dc565b610561565b610535565b6104e5565b6103a9565b610321565b6102ec565b61029e565b610175565b610150565b6001600160a01b031690565b90565b6001600160a01b0381165b0361012857565b600080fd5b9050359061013a82610116565b565b90602082820312610128576101139161012d565b346101285761016861016336600461013c565b610a27565b604051005b0390f35b9052565b346101285761016d61019061018b36600461013c565b6106ee565b60405191829182901515815260200190565b634e487b7160e01b600052604160045260246000fd5b90601f01601f1916810190811067ffffffffffffffff8211176101da57604052565b6101a2565b9061013a6101ec60405190565b92836101b8565b67ffffffffffffffff81116101da5760208091020190565b9092919261022061021b826101f3565b6101df565b938185526020808601920283019281841161012857915b8383106102445750505050565b60208091610252848661012d565b815201920191610237565b9080601f83011215610128578160206101139335910161020b565b9060208282031261012857813567ffffffffffffffff811161012857610113920161025d565b34610128576101686102b1366004610278565b6109e3565b600091031261012857565b610113916008021c6001600160a01b031690565b9061011391546102c1565b610113600060036102d5565b34610128576102fc3660046102b6565b61016d6103076102e0565b604051918291826001600160a01b03909116815260200190565b34610128576103313660046102b6565b61016861107e565b90610359610352610348845190565b8084529260200190565b9260200190565b9060005b81811061036a5750505090565b90919261039061038960019286516001600160a01b0316815260200190565b9460200190565b92910161035d565b602080825261011392910190610339565b34610128576103b93660046102b6565b61016d6103c46107f5565b60405191829182610398565b80610121565b9050359061013a826103d0565b919060408382031261012857610113906103fd818561012d565b936020016103d6565b61011390610107906001600160a01b031682565b61011390610406565b6101139061041a565b9061043690610423565b600052602052604060002090565b634e487b7160e01b600052603260045260246000fd5b805482101561047d57610474600291600052602060002090565b91020190600090565b610444565b6101139081565b6101139054610482565b91906104a360049360009461042c565b80548210156104ce576104b792935061045a565b509061011360016104c784610489565b9301610489565b8380fd5b90815260408101929161013a9160200152565b34610128576104fe6104f83660046103e3565b90610493565b9061016d61050b60405190565b928392836104d2565b6101136101136101139290565b6101136203f480610514565b610113610521565b34610128576105453660046102b6565b61016d61055061052d565b6040515b9182918290815260200190565b346101285761016861057436600461013c565b610a05565b90610588610352610348845190565b9060005b8181106105995750505090565b9091926105af6103896001928651815260200190565b92910161058c565b60408082526101139391926105ce91840190610579565b916020818403910152610579565b34610128576105f46105ef36600461013c565b611212565b9061016d61060160405190565b928392836105b7565b91906040838203126101285761011390610624818561012d565b9360200161012d565b346101285761016861064036600461060a565b90610d47565b34610128576106563660046102b6565b610168610a30565b9060208282031261012857610113916103d6565b346101285761016861068536600461065e565b610eca565b610113600060026102d5565b61017190610423565b60208101929161013a9190610696565b34610128576106bf3660046102b6565b61016d6106ca61068a565b6040519182918261069f565b34610128576101686106e936600461065e565b611362565b61011390600061070b565b6101139081906001600160a01b031681565b9061073c61073861073361072e600061011396610726600090565b50019461041a565b6106f9565b610514565b9190565b610747565b90610436565b61076591600161076092610759600090565b5001610741565b610489565b6107726107386000610514565b141590565b9061078461021b836101f3565b918252565b369037565b9061013a6107a461079e84610777565b936101f3565b601f190160208401610789565b634e487b7160e01b600052601160045260246000fd5b60001981146107d65760010190565b6107b1565b906107e4825190565b81101561047d576020809102010190565b6000908161080a61080582610861565b61078e565b926108158491610514565b61082161011384610861565b81101561085b578061085161083961085693866108a1565b61084383896107db565b906001600160a01b03169052565b6107c7565b610815565b50925050565b610877600061011392610872600090565b500190565b600061011391610885600090565b50015490565b61011390610514565b6101076101136101139290565b6108c66108c1610113936108bc60006108cb95610872600090565b610900565b61088b565b610894565b61041a565b805482101561047d57610474600191600052602060002090565b610113916008021c81565b9061011391546108ea565b61011391600061091992610912600090565b50016108d0565b906108f5565b1561092657565b60405162461bcd60e51b815260206004820152602e60248201527f41646d696e526f6c653a2063616c6c657220646f6573206e6f7420686176652060448201526d7468652041646d696e20726f6c6560901b6064820152608490fd5b0390fd5b61013a9061099b610996336106ee565b61091f565b906109a66000610514565b6109b1610113845190565b8110156109de57806108516105746109cc6109d994876107db565b516001600160a01b031690565b6109a6565b509050565b61013a90610986565b61013a906109fc610996336106ee565b61013a90610a39565b61013a906109ec565b61013a90610a1e610996336106ee565b61013a90610b6a565b61013a90610a0e565b61013a33610b6a565b610a44816000610a81565b50610a6f7f44d6d25963f097ad14f29f06854a01f575648a1ef82f30e562ccd3889717e33991610423565b90610a7960405190565b80805b0390a2565b90610a9c61073861073361072e600061011396610726600090565b610b20565b9160001960089290920291821b911b5b9181191691161790565b9190610aca610113610ad29390565b908354610aa1565b9055565b90815491600160401b8310156101da5782610af991600161013a950181556108d0565b90610abb565b9060001990610ab1565b90610b19610113610ad292610514565b8254610aff565b610b31610b2d8383610747565b1590565b15610b6357610b5e91610b59906001610b5284610b4e8482610ad6565b5490565b9301610741565b610b09565b600190565b5050600090565b610b75816000610ba0565b50610a6f7fa3b62bc36326052d97ea62d63c3d60308ed4c3ea8ac079dd8499f1e9c4f80c0f91610423565b90610bbb61073861073361072e600061011396610726600090565b610c34565b919082039182116107d657565b634e487b7160e01b600052603160045260246000fd5b61013a91600091610abb565b80548015610c12576000190190610c0f610c0983836108d0565b90610be3565b55565b610bcd565b9190610aca610113610ad293610514565b61013a91600091610c17565b90610c456107608260018501610741565b600092610c5184610514565b8214610ca45761011392610caa9492610cb592610caf6001978893610c7e610c7886610514565b82610bc0565b88850191610c9c610c8d845490565b610c9689610514565b90610bc0565b828103610cba575b50505090565b610bef565b01610741565b610c28565b610af9610cdd610ce594610cd4610919610b5995896108d0565b928391886108d0565b888801610741565b388080610ca4565b9061013a91610cfe610996336106ee565b610d29565b906001600160a01b0390610ab1565b90610d22610113610ad292610423565b8254610d03565b90610d40610d3961013a93610423565b6002610d12565b6003610d12565b9061013a91610ced565b15610d5857565b60405162461bcd60e51b815260206004820152601f60248201527f416d6f756e74206d7573742062652067726561746572207468616e20313030006044820152606490fd5b61011390610107565b6101139054610d9d565b801515610121565b9050519061013a82610db0565b906020828203126101285761011391610db8565b6001600160a01b0391821681529116602082015260608101929161013a9160400152565b6040513d6000823e3d90fd5b15610e1057565b60405162461bcd60e51b815260206004820152600f60248201526e151c985b9cd9995c8819985a5b1959608a1b6044820152606490fd5b61011360406101df565b634e487b7160e01b600052600060045260246000fd5b61013a9190610e8090602090600190610e868185875190565b90610b09565b0192015190565b9190610e9c5761013a91610e67565b610e51565b90815491600160401b8310156101da5782610ec491600161013a9501815561045a565b90610e8d565b610ede610ed76064610514565b8211610d51565b610ef0610eeb6002610da6565b610423565b8160206323b872dd3393610f236000610f096003610da6565b93610f2f610f1660405190565b9788968795869460e01b90565b84528a60048501610dd9565b03925af18015610fe457610f4b91600091610fb6575b50610e09565b610f5961011382600461042c565b610f7f4291610f66610e47565b90610f6f868352565b610f7a846020840152565b610ea1565b610fa97f1449c6dd7851abc30abf37f57715f492010519147cc2652fbc38202c18a6ee9092610423565b92610a7c61050b60405190565b610fd7915060203d8111610fdd575b610fcf81836101b8565b810190610dc5565b38610f45565b503d610fc5565b610dfd565b919082018092116107d657565b15610ffd57565b60405162461bcd60e51b815280610982600482016020808252818101527f4e6f20776974686472617761626c6520616d6f756e7420617661696c61626c65604082015260600190565b818102929181159184041417156107d657565b634e487b7160e01b600052601260045260246000fd5b8115611079570490565b611059565b600061108981610514565b4292815b3360046110a0610113610b4e848461042c565b83101561113a57856110db6101136110cd60016110c6886110c1898961042c565b61045a565b5001610489565b6110d5610521565b90610fe9565b8810156110f4575b5050506110ef906107c7565b61108d565b908161112b856110c161111b879a6110d5611132986110c6866110c16110ef9e9d8c61042c565b9961112585610514565b9561042c565b5001610b09565b9038856110e3565b50505092509061115361114c82610514565b8311610ff6565b611160610eeb6002610da6565b60206323b872dd916111726003610da6565b906111b5339586956111c06111a561119461118e610403610514565b8c611046565b61119f6103e8610514565b9061106f565b6040519889978896879560e01b90565b855260048501610dd9565b03925af18015610fe4576111db91600091610fb65750610e09565b610a7c6112087f7084f5476618d8e60b11ef0d7d3f06914655adb8793e28ff7f018d4c76d505d592610423565b9261055460405190565b600490611222610b4e828461042c565b9161122c8361078e565b80946112378561078e565b958660009261124584610514565b885b81101561129f57611298816108518c6112908361128a60018f8f998f8f928c6112936110c1936112479f8661128a6110c6996110c6836110c18a6112909761042c565b926107db565b52565b61042c565b9050611245565b50955095509550505050565b156112b257565b60405162461bcd60e51b815260206004820152602760248201527f4f6e6c79207468652066697865642077616c6c6574206f776e65722063616e20604482015266617070726f766560c81b6064820152608490fd5b6001600160a01b03909116815260408101929161013a9160200152565b1561132b57565b60405162461bcd60e51b815260206004820152600f60248201526e105c1c1c9bdd985b0819985a5b1959608a1b6044820152606490fd5b611389336113836113766101076003610da6565b916001600160a01b031690565b146112ab565b6020611398610eeb6002610da6565b63095ea7b3906113b960006113ac30610423565b936113c4610f1660405190565b845260048401611307565b03925af18015610fe45761013a916000916113e0575b50611324565b6113f8915060203d8111610fdd57610fcf81836101b8565b386113da56fea26469706673582212200554a66ab01e277b0d73cc71fa59b127b4bda8e9c9c23e05097003ddfd1dc45a64736f6c63430008140033",
    "linkReferences": {},
    "deployedLinkReferences": {}
}